{
  "contractName": "ICO",
  "abi": [
    {
      "inputs": [
        {
          "internalType": "string",
          "name": "_name",
          "type": "string"
        },
        {
          "internalType": "string",
          "name": "_symbol",
          "type": "string"
        },
        {
          "internalType": "uint256",
          "name": "_decimals",
          "type": "uint256"
        },
        {
          "internalType": "uint256",
          "name": "_totalSupply",
          "type": "uint256"
        }
      ],
      "stateMutability": "nonpayable",
      "type": "constructor"
    },
    {
      "inputs": [],
      "name": "admin",
      "outputs": [
        {
          "internalType": "address",
          "name": "",
          "type": "address"
        }
      ],
      "stateMutability": "view",
      "type": "function",
      "constant": true
    },
    {
      "inputs": [],
      "name": "availableTokens",
      "outputs": [
        {
          "internalType": "uint256",
          "name": "",
          "type": "uint256"
        }
      ],
      "stateMutability": "view",
      "type": "function",
      "constant": true
    },
    {
      "inputs": [],
      "name": "end",
      "outputs": [
        {
          "internalType": "uint256",
          "name": "",
          "type": "uint256"
        }
      ],
      "stateMutability": "view",
      "type": "function",
      "constant": true
    },
    {
      "inputs": [
        {
          "internalType": "address",
          "name": "",
          "type": "address"
        }
      ],
      "name": "investors",
      "outputs": [
        {
          "internalType": "bool",
          "name": "",
          "type": "bool"
        }
      ],
      "stateMutability": "view",
      "type": "function",
      "constant": true
    },
    {
      "inputs": [],
      "name": "maxPurchase",
      "outputs": [
        {
          "internalType": "uint256",
          "name": "",
          "type": "uint256"
        }
      ],
      "stateMutability": "view",
      "type": "function",
      "constant": true
    },
    {
      "inputs": [],
      "name": "minPurchase",
      "outputs": [
        {
          "internalType": "uint256",
          "name": "",
          "type": "uint256"
        }
      ],
      "stateMutability": "view",
      "type": "function",
      "constant": true
    },
    {
      "inputs": [],
      "name": "price",
      "outputs": [
        {
          "internalType": "uint256",
          "name": "",
          "type": "uint256"
        }
      ],
      "stateMutability": "view",
      "type": "function",
      "constant": true
    },
    {
      "inputs": [],
      "name": "released",
      "outputs": [
        {
          "internalType": "bool",
          "name": "",
          "type": "bool"
        }
      ],
      "stateMutability": "view",
      "type": "function",
      "constant": true
    },
    {
      "inputs": [
        {
          "internalType": "uint256",
          "name": "",
          "type": "uint256"
        }
      ],
      "name": "sales",
      "outputs": [
        {
          "internalType": "address",
          "name": "investor",
          "type": "address"
        },
        {
          "internalType": "uint256",
          "name": "quantity",
          "type": "uint256"
        }
      ],
      "stateMutability": "view",
      "type": "function",
      "constant": true
    },
    {
      "inputs": [],
      "name": "token",
      "outputs": [
        {
          "internalType": "address",
          "name": "",
          "type": "address"
        }
      ],
      "stateMutability": "view",
      "type": "function",
      "constant": true
    },
    {
      "inputs": [
        {
          "internalType": "uint256",
          "name": "duration",
          "type": "uint256"
        },
        {
          "internalType": "uint256",
          "name": "_price",
          "type": "uint256"
        },
        {
          "internalType": "uint256",
          "name": "_availableTokens",
          "type": "uint256"
        },
        {
          "internalType": "uint256",
          "name": "_minPurchase",
          "type": "uint256"
        },
        {
          "internalType": "uint256",
          "name": "_maxPurchase",
          "type": "uint256"
        }
      ],
      "name": "start",
      "outputs": [],
      "stateMutability": "nonpayable",
      "type": "function"
    },
    {
      "inputs": [
        {
          "internalType": "address",
          "name": "investor",
          "type": "address"
        }
      ],
      "name": "whiteList",
      "outputs": [],
      "stateMutability": "nonpayable",
      "type": "function"
    },
    {
      "inputs": [],
      "name": "buy",
      "outputs": [],
      "stateMutability": "payable",
      "type": "function",
      "payable": true
    },
    {
      "inputs": [],
      "name": "release",
      "outputs": [],
      "stateMutability": "nonpayable",
      "type": "function"
    },
    {
      "inputs": [
        {
          "internalType": "address payable",
          "name": "to",
          "type": "address"
        },
        {
          "internalType": "uint256",
          "name": "amount",
          "type": "uint256"
        }
      ],
      "name": "withdraw",
      "outputs": [],
      "stateMutability": "nonpayable",
      "type": "function"
    }
  ],
  "bytecode": "0x60806040523480156200001157600080fd5b506040516200303938038062003039833981810160405281019062000037919062000198565b83838383604051620000499062000101565b62000058949392919062000288565b604051809103906000f08015801562000075573d6000803e3d6000fd5b50600260006101000a81548173ffffffffffffffffffffffffffffffffffffffff021916908373ffffffffffffffffffffffffffffffffffffffff16021790555033600360006101000a81548173ffffffffffffffffffffffffffffffffffffffff021916908373ffffffffffffffffffffffffffffffffffffffff1602179055505050505062000400565b6111d68062001e6383390190565b600062000126620001208462000317565b620002e3565b9050828152602081018484840111156200013f57600080fd5b6200014c84828562000370565b509392505050565b600082601f8301126200016657600080fd5b8151620001788482602086016200010f565b91505092915050565b6000815190506200019281620003e6565b92915050565b60008060008060808587031215620001af57600080fd5b600085015167ffffffffffffffff811115620001ca57600080fd5b620001d88782880162000154565b945050602085015167ffffffffffffffff811115620001f657600080fd5b620002048782880162000154565b9350506040620002178782880162000181565b92505060606200022a8782880162000181565b91505092959194509250565b600062000243826200034a565b6200024f818562000355565b93506200026181856020860162000370565b6200026c81620003d5565b840191505092915050565b620002828162000366565b82525050565b60006080820190508181036000830152620002a4818762000236565b90508181036020830152620002ba818662000236565b9050620002cb604083018562000277565b620002da606083018462000277565b95945050505050565b6000604051905081810181811067ffffffffffffffff821117156200030d576200030c620003a6565b5b8060405250919050565b600067ffffffffffffffff821115620003355762000334620003a6565b5b601f19601f8301169050602081019050919050565b600081519050919050565b600082825260208201905092915050565b6000819050919050565b60005b838110156200039057808201518184015260208101905062000373565b83811115620003a0576000848401525b50505050565b7f4e487b7100000000000000000000000000000000000000000000000000000000600052604160045260246000fd5b6000601f19601f8301169050919050565b620003f18162000366565b8114620003fd57600080fd5b50565b611a5380620004106000396000f3fe608060405260043610610105576000357c010000000000000000000000000000000000000000000000000000000090048063a035b1fe116100a7578063efbe1c1c11610076578063efbe1c1c146102cf578063f3fef3a3146102fa578063f851a44014610323578063fc0c546a1461034e57610105565b8063a035b1fe14610233578063a6f2ae3a1461025e578063b5f522f714610268578063d607b55b146102a657610105565b80636f7bc9be116100e35780636f7bc9be1461018957806386d1a69f146101c657806396132521146101dd578063977b055b1461020857610105565b806333b5b62e1461010a578063372c12b11461013557806369bb4dc21461015e575b600080fd5b34801561011657600080fd5b5061011f610379565b60405161012c91906117b3565b60405180910390f35b34801561014157600080fd5b5061015c60048036038101906101579190610f86565b61037f565b005b34801561016a57600080fd5b50610173610469565b60405161018091906117b3565b60405180910390f35b34801561019557600080fd5b506101b060048036038101906101ab9190610f86565b61046f565b6040516101bd91906115d8565b60405180910390f35b3480156101d257600080fd5b506101db61048f565b005b3480156101e957600080fd5b506101f2610740565b6040516101ff91906115d8565b60405180910390f35b34801561021457600080fd5b5061021d610753565b60405161022a91906117b3565b60405180910390f35b34801561023f57600080fd5b50610248610759565b60405161025591906117b3565b60405180910390f35b61026661075f565b005b34801561027457600080fd5b5061028f600480360381019061028a9190611014565b6109f8565b60405161029d9291906115af565b60405180910390f35b3480156102b257600080fd5b506102cd60048036038101906102c89190611066565b610a4c565b005b3480156102db57600080fd5b506102e4610d3b565b6040516102f191906117b3565b60405180910390f35b34801561030657600080fd5b50610321600480360381019061031c9190610faf565b610d41565b005b34801561032f57600080fd5b50610338610ed1565b6040516103459190611594565b60405180910390f35b34801561035a57600080fd5b50610363610ef7565b6040516103709190611594565b60405180910390f35b60075481565b600360009054906101000a900473ffffffffffffffffffffffffffffffffffffffff1673ffffffffffffffffffffffffffffffffffffffff163373ffffffffffffffffffffffffffffffffffffffff161461040f576040517f08c379a000000000000000000000000000000000000000000000000000000000815260040161040690611673565b60405180910390fd5b60018060008373ffffffffffffffffffffffffffffffffffffffff1673ffffffffffffffffffffffffffffffffffffffff16815260200190815260200160002060006101000a81548160ff02191690831515021790555050565b60065481565b60016020528060005260406000206000915054906101000a900460ff1681565b600360009054906101000a900473ffffffffffffffffffffffffffffffffffffffff1673ffffffffffffffffffffffffffffffffffffffff163373ffffffffffffffffffffffffffffffffffffffff161461051f576040517f08c379a000000000000000000000000000000000000000000000000000000000815260040161051690611673565b60405180910390fd5b600060045411801561053f575060045442118061053e57506000600654145b5b61057e576040517f08c379a0000000000000000000000000000000000000000000000000000000008152600401610575906115f3565b60405180910390fd5b60001515600960009054906101000a900460ff161515146105d4576040517f08c379a00000000000000000000000000000000000000000000000000000000081526004016105cb90611653565b60405180910390fd5b6000600260009054906101000a900473ffffffffffffffffffffffffffffffffffffffff16905060005b60008054905081101561073c576000808281548110610646577f4e487b7100000000000000000000000000000000000000000000000000000000600052603260045260246000fd5b906000526020600020906002020190508273ffffffffffffffffffffffffffffffffffffffff1663a9059cbb8260000160009054906101000a900473ffffffffffffffffffffffffffffffffffffffff1683600101546040518363ffffffff167c01000000000000000000000000000000000000000000000000000000000281526004016106d59291906115af565b602060405180830381600087803b1580156106ef57600080fd5b505af1158015610703573d6000803e3d6000fd5b505050506040513d601f19601f820116820180604052508101906107279190610feb565b50508080610734906118e9565b9150506105fe565b5050565b600960009054906101000a900460ff1681565b60085481565b60055481565b60011515600160003373ffffffffffffffffffffffffffffffffffffffff1673ffffffffffffffffffffffffffffffffffffffff16815260200190815260200160002060009054906101000a900460ff161515146107f2576040517f08c379a00000000000000000000000000000000000000000000000000000000081526004016107e990611633565b60405180910390fd5b6000600454118015610805575060045442105b801561081357506000600654115b610852576040517f08c379a000000000000000000000000000000000000000000000000000000000815260040161084990611693565b60405180910390fd5b6000600554346108629190611932565b146108a2576040517f08c379a0000000000000000000000000000000000000000000000000000000008152600401610899906116f3565b60405180910390fd5b60075434101580156108b657506008543411155b6108f5576040517f08c379a00000000000000000000000000000000000000000000000000000000081526004016108ec90611733565b60405180910390fd5b6000346005546109059190611835565b905060065481111561094c576040517f08c379a000000000000000000000000000000000000000000000000000000000815260040161094390611793565b60405180910390fd5b600060405180604001604052803373ffffffffffffffffffffffffffffffffffffffff16815260200183815250908060018154018082558091505060019003906000526020600020906002020160009091909190915060008201518160000160006101000a81548173ffffffffffffffffffffffffffffffffffffffff021916908373ffffffffffffffffffffffffffffffffffffffff16021790555060208201518160010155505050565b60008181548110610a0857600080fd5b90600052602060002090600202016000915090508060000160009054906101000a900473ffffffffffffffffffffffffffffffffffffffff16908060010154905082565b600360009054906101000a900473ffffffffffffffffffffffffffffffffffffffff1673ffffffffffffffffffffffffffffffffffffffff163373ffffffffffffffffffffffffffffffffffffffff1614610adc576040517f08c379a0000000000000000000000000000000000000000000000000000000008152600401610ad390611673565b60405180910390fd5b600060045414610b21576040517f08c379a0000000000000000000000000000000000000000000000000000000008152600401610b1890611773565b60405180910390fd5b60008511610b64576040517f08c379a0000000000000000000000000000000000000000000000000000000008152600401610b5b90611713565b60405180910390fd5b6000600260009054906101000a900473ffffffffffffffffffffffffffffffffffffffff1673ffffffffffffffffffffffffffffffffffffffff166318160ddd6040518163ffffffff167c010000000000000000000000000000000000000000000000000000000002815260040160206040518083038186803b158015610bea57600080fd5b505afa158015610bfe573d6000803e3d6000fd5b505050506040513d601f19601f82011682018060405250810190610c22919061103d565b9050600084118015610c345750808411155b610c73576040517f08c379a0000000000000000000000000000000000000000000000000000000008152600401610c6a90611613565b60405180910390fd5b60008311610cb6576040517f08c379a0000000000000000000000000000000000000000000000000000000008152600401610cad906116d3565b60405180910390fd5b600082118015610cc65750838211155b610d05576040517f08c379a0000000000000000000000000000000000000000000000000000000008152600401610cfc90611753565b60405180910390fd5b4286610d1191906117df565b60048190555084600581905550836006819055508260078190555081600881905550505050505050565b60045481565b600360009054906101000a900473ffffffffffffffffffffffffffffffffffffffff1673ffffffffffffffffffffffffffffffffffffffff163373ffffffffffffffffffffffffffffffffffffffff1614610dd1576040517f08c379a0000000000000000000000000000000000000000000000000000000008152600401610dc890611673565b60405180910390fd5b6000600454118015610df15750600454421180610df057506000600654145b5b610e30576040517f08c379a0000000000000000000000000000000000000000000000000000000008152600401610e27906115f3565b60405180910390fd5b60011515600960009054906101000a900460ff16151514610e86576040517f08c379a0000000000000000000000000000000000000000000000000000000008152600401610e7d906116b3565b60405180910390fd5b8173ffffffffffffffffffffffffffffffffffffffff166108fc829081150290604051600060405180830381858888f19350505050158015610ecc573d6000803e3d6000fd5b505050565b600360009054906101000a900473ffffffffffffffffffffffffffffffffffffffff1681565b600260009054906101000a900473ffffffffffffffffffffffffffffffffffffffff1681565b600081359050610f2c816119c1565b92915050565b600081359050610f41816119d8565b92915050565b600081519050610f56816119ef565b92915050565b600081359050610f6b81611a06565b92915050565b600081519050610f8081611a06565b92915050565b600060208284031215610f9857600080fd5b6000610fa684828501610f1d565b91505092915050565b60008060408385031215610fc257600080fd5b6000610fd085828601610f32565b9250506020610fe185828601610f5c565b9150509250929050565b600060208284031215610ffd57600080fd5b600061100b84828501610f47565b91505092915050565b60006020828403121561102657600080fd5b600061103484828501610f5c565b91505092915050565b60006020828403121561104f57600080fd5b600061105d84828501610f71565b91505092915050565b600080600080600060a0868803121561107e57600080fd5b600061108c88828901610f5c565b955050602061109d88828901610f5c565b94505060406110ae88828901610f5c565b93505060606110bf88828901610f5c565b92505060806110d088828901610f5c565b9150509295509295909350565b6110e68161188f565b82525050565b6110f5816118b3565b82525050565b60006111086013836117ce565b91507f49434f206d757374206861766520656e646564000000000000000000000000006000830152602082019050919050565b60006111486044836117ce565b91507f417661696c61626c6520737570706c792073686f756c6420626520677265617460008301527f6572207468616e203020616e64206c657373207468616e20746f74616c20737560208301527f70706c79000000000000000000000000000000000000000000000000000000006040830152606082019050919050565b60006111d4600f836117ce565b91507f204f6e6c7920696e766573746f727300000000000000000000000000000000006000830152602082019050919050565b60006112146022836117ce565b91507f546f6b656e73206d757374206e6f742068617665206265656e2072656c65617360008301527f65640000000000000000000000000000000000000000000000000000000000006020830152604082019050919050565b600061127a600a836117ce565b91507f4f6e6c792061646d696e000000000000000000000000000000000000000000006000830152602082019050919050565b60006112ba6012836117ce565b91507f49434f206d7573742062652061637469766500000000000000000000000000006000830152602082019050919050565b60006112fa601e836117ce565b91507f546f6b656e73206d7573742068617665206265656e2072656c656173656400006000830152602082019050919050565b600061133a6029836117ce565b91507f4d696e696d756d2070757263686173652073686f756c6420626520677265617460008301527f6572207468616e203000000000000000000000000000000000000000000000006020830152604082019050919050565b60006113a06020836117ce565b91507f4861766520746f2073656e642061206d756c7469706c65206f662070726963656000830152602082019050919050565b60006113e06016836117ce565b91507f4475726174696f6e2073686f756c64206265203e2030000000000000000000006000830152602082019050919050565b60006114206031836117ce565b91507f4861766520746f2073656e64206265747765656e206d696e696d756d20616e6460008301527f206d6178696d756d2070757263686173650000000000000000000000000000006020830152604082019050919050565b60006114866054836117ce565b91507f4d6178696d756d2070757263686173652073686f756c6420626520677265617460008301527f6572207468616e203020616e64206c657373207468616e206f7220657175616c60208301527f20746f20617661696c61626c6520746f6b656e730000000000000000000000006040830152606082019050919050565b60006115126018836117ce565b91507f49434f2073686f756c64206e6f742062652061637469766500000000000000006000830152602082019050919050565b6000611552601c836117ce565b91507f496e73756666696369656e7420746f6b656e7320666f722073616c65000000006000830152602082019050919050565b61158e816118df565b82525050565b60006020820190506115a960008301846110dd565b92915050565b60006040820190506115c460008301856110dd565b6115d16020830184611585565b9392505050565b60006020820190506115ed60008301846110ec565b92915050565b6000602082019050818103600083015261160c816110fb565b9050919050565b6000602082019050818103600083015261162c8161113b565b9050919050565b6000602082019050818103600083015261164c816111c7565b9050919050565b6000602082019050818103600083015261166c81611207565b9050919050565b6000602082019050818103600083015261168c8161126d565b9050919050565b600060208201905081810360008301526116ac816112ad565b9050919050565b600060208201905081810360008301526116cc816112ed565b9050919050565b600060208201905081810360008301526116ec8161132d565b9050919050565b6000602082019050818103600083015261170c81611393565b9050919050565b6000602082019050818103600083015261172c816113d3565b9050919050565b6000602082019050818103600083015261174c81611413565b9050919050565b6000602082019050818103600083015261176c81611479565b9050919050565b6000602082019050818103600083015261178c81611505565b9050919050565b600060208201905081810360008301526117ac81611545565b9050919050565b60006020820190506117c86000830184611585565b92915050565b600082825260208201905092915050565b60006117ea826118df565b91506117f5836118df565b9250827fffffffffffffffffffffffffffffffffffffffffffffffffffffffffffffffff0382111561182a57611829611963565b5b828201905092915050565b6000611840826118df565b915061184b836118df565b9250817fffffffffffffffffffffffffffffffffffffffffffffffffffffffffffffffff048311821515161561188457611883611963565b5b828202905092915050565b600061189a826118bf565b9050919050565b60006118ac826118bf565b9050919050565b60008115159050919050565b600073ffffffffffffffffffffffffffffffffffffffff82169050919050565b6000819050919050565b60006118f4826118df565b91507fffffffffffffffffffffffffffffffffffffffffffffffffffffffffffffffff82141561192757611926611963565b5b600182019050919050565b600061193d826118df565b9150611948836118df565b92508261195857611957611992565b5b828206905092915050565b7f4e487b7100000000000000000000000000000000000000000000000000000000600052601160045260246000fd5b7f4e487b7100000000000000000000000000000000000000000000000000000000600052601260045260246000fd5b6119ca8161188f565b81146119d557600080fd5b50565b6119e1816118a1565b81146119ec57600080fd5b50565b6119f8816118b3565b8114611a0357600080fd5b50565b611a0f816118df565b8114611a1a57600080fd5b5056fea2646970667358221220a8452198c2c47fe092f30e45fae2e09856b5d8ff8d406de042e7fa20bf5b346f64736f6c6343000800003360806040523480156200001157600080fd5b50604051620011d6380380620011d68339818101604052810190620000379190620001fe565b83600090805190602001906200004f929190620000c5565b50826001908051906020019062000068929190620000c5565b50816002819055508060038190555080600460003373ffffffffffffffffffffffffffffffffffffffff1673ffffffffffffffffffffffffffffffffffffffff1681526020019081526020016000208190555050505050620003f1565b828054620000d39062000343565b90600052602060002090601f016020900481019282620000f7576000855562000143565b82601f106200011257805160ff191683800117855562000143565b8280016001018555821562000143579182015b828111156200014257825182559160200191906001019062000125565b5b50905062000152919062000156565b5090565b5b808211156200017157600081600090555060010162000157565b5090565b60006200018c6200018684620002d0565b6200029c565b905082815260208101848484011115620001a557600080fd5b620001b28482856200030d565b509392505050565b600082601f830112620001cc57600080fd5b8151620001de84826020860162000175565b91505092915050565b600081519050620001f881620003d7565b92915050565b600080600080608085870312156200021557600080fd5b600085015167ffffffffffffffff8111156200023057600080fd5b6200023e87828801620001ba565b945050602085015167ffffffffffffffff8111156200025c57600080fd5b6200026a87828801620001ba565b93505060406200027d87828801620001e7565b92505060606200029087828801620001e7565b91505092959194509250565b6000604051905081810181811067ffffffffffffffff82111715620002c657620002c5620003a8565b5b8060405250919050565b600067ffffffffffffffff821115620002ee57620002ed620003a8565b5b601f19601f8301169050602081019050919050565b6000819050919050565b60005b838110156200032d57808201518184015260208101905062000310565b838111156200033d576000848401525b50505050565b600060028204905060018216806200035c57607f821691505b6020821081141562000373576200037262000379565b5b50919050565b7f4e487b7100000000000000000000000000000000000000000000000000000000600052602260045260246000fd5b7f4e487b7100000000000000000000000000000000000000000000000000000000600052604160045260246000fd5b620003e28162000303565b8114620003ee57600080fd5b50565b610dd580620004016000396000f3fe608060405234801561001057600080fd5b50600436106100c6576000357c010000000000000000000000000000000000000000000000000000000090048063313ce5671161008e578063313ce567146101975780635c658165146101b557806370a08231146101e557806395d89b4114610215578063a9059cbb14610233578063dd62ed3e14610263576100c6565b806306fdde03146100cb578063095ea7b3146100e957806318160ddd1461011957806323b872dd1461013757806327e235e314610167575b600080fd5b6100d3610293565b6040516100e09190610b72565b60405180910390f35b61010360048036038101906100fe9190610ac4565b610321565b6040516101109190610b57565b60405180910390f35b61012161044c565b60405161012e9190610b94565b60405180910390f35b610151600480360381019061014c9190610a75565b610452565b60405161015e9190610b57565b60405180910390f35b610181600480360381019061017c9190610a10565b6106dc565b60405161018e9190610b94565b60405180910390f35b61019f6106f4565b6040516101ac9190610b94565b60405180910390f35b6101cf60048036038101906101ca9190610a39565b6106fa565b6040516101dc9190610b94565b60405180910390f35b6101ff60048036038101906101fa9190610a10565b61071f565b60405161020c9190610b94565b60405180910390f35b61021d610768565b60405161022a9190610b72565b60405180910390f35b61024d60048036038101906102489190610ac4565b6107f6565b60405161025a9190610b57565b60405180910390f35b61027d60048036038101906102789190610a39565b61095f565b60405161028a9190610b94565b60405180910390f35b600080546102a090610cd0565b80601f01602080910402602001604051908101604052809291908181526020018280546102cc90610cd0565b80156103195780601f106102ee57610100808354040283529160200191610319565b820191906000526020600020905b8154815290600101906020018083116102fc57829003601f168201915b505050505081565b60003373ffffffffffffffffffffffffffffffffffffffff168373ffffffffffffffffffffffffffffffffffffffff16141561035c57600080fd5b81600560003373ffffffffffffffffffffffffffffffffffffffff1673ffffffffffffffffffffffffffffffffffffffff16815260200190815260200160002060008573ffffffffffffffffffffffffffffffffffffffff1673ffffffffffffffffffffffffffffffffffffffff168152602001908152602001600020819055508273ffffffffffffffffffffffffffffffffffffffff163373ffffffffffffffffffffffffffffffffffffffff167f8c5be1e5ebec7d5bd14f71427d1e84f3dd0314c0f7b2291e5b200ac8c7c3b9258460405161043a9190610b94565b60405180910390a36001905092915050565b60035481565b600080600560008673ffffffffffffffffffffffffffffffffffffffff1673ffffffffffffffffffffffffffffffffffffffff16815260200190815260200160002060003373ffffffffffffffffffffffffffffffffffffffff1673ffffffffffffffffffffffffffffffffffffffff16815260200190815260200160002054905082600460003373ffffffffffffffffffffffffffffffffffffffff1673ffffffffffffffffffffffffffffffffffffffff16815260200190815260200160002054101580156105235750828110155b61052c57600080fd5b82600560008773ffffffffffffffffffffffffffffffffffffffff1673ffffffffffffffffffffffffffffffffffffffff16815260200190815260200160002060003373ffffffffffffffffffffffffffffffffffffffff1673ffffffffffffffffffffffffffffffffffffffff16815260200190815260200160002060008282546105b89190610c21565b9250508190555082600460003373ffffffffffffffffffffffffffffffffffffffff1673ffffffffffffffffffffffffffffffffffffffff168152602001908152602001600020600082825461060e9190610c21565b9250508190555082600460008673ffffffffffffffffffffffffffffffffffffffff1673ffffffffffffffffffffffffffffffffffffffff16815260200190815260200160002060008282546106649190610bcb565b925050819055508373ffffffffffffffffffffffffffffffffffffffff163373ffffffffffffffffffffffffffffffffffffffff167fddf252ad1be2c89b69c2b068fc378daa952ba7f163c4a11628f55a4df523b3ef856040516106c89190610b94565b60405180910390a360019150509392505050565b60046020528060005260406000206000915090505481565b60025481565b6005602052816000526040600020602052806000526040600020600091509150505481565b6000600460008373ffffffffffffffffffffffffffffffffffffffff1673ffffffffffffffffffffffffffffffffffffffff168152602001908152602001600020549050919050565b6001805461077590610cd0565b80601f01602080910402602001604051908101604052809291908181526020018280546107a190610cd0565b80156107ee5780601f106107c3576101008083540402835291602001916107ee565b820191906000526020600020905b8154815290600101906020018083116107d157829003601f168201915b505050505081565b600081600460003373ffffffffffffffffffffffffffffffffffffffff1673ffffffffffffffffffffffffffffffffffffffff16815260200190815260200160002054101561084457600080fd5b81600460003373ffffffffffffffffffffffffffffffffffffffff1673ffffffffffffffffffffffffffffffffffffffff16815260200190815260200160002060008282546108939190610c21565b9250508190555081600460008573ffffffffffffffffffffffffffffffffffffffff1673ffffffffffffffffffffffffffffffffffffffff16815260200190815260200160002060008282546108e99190610bcb565b925050819055508273ffffffffffffffffffffffffffffffffffffffff163373ffffffffffffffffffffffffffffffffffffffff167fddf252ad1be2c89b69c2b068fc378daa952ba7f163c4a11628f55a4df523b3ef8460405161094d9190610b94565b60405180910390a36001905092915050565b6000600560008473ffffffffffffffffffffffffffffffffffffffff1673ffffffffffffffffffffffffffffffffffffffff16815260200190815260200160002060008373ffffffffffffffffffffffffffffffffffffffff1673ffffffffffffffffffffffffffffffffffffffff16815260200190815260200160002054905092915050565b6000813590506109f581610d71565b92915050565b600081359050610a0a81610d88565b92915050565b600060208284031215610a2257600080fd5b6000610a30848285016109e6565b91505092915050565b60008060408385031215610a4c57600080fd5b6000610a5a858286016109e6565b9250506020610a6b858286016109e6565b9150509250929050565b600080600060608486031215610a8a57600080fd5b6000610a98868287016109e6565b9350506020610aa9868287016109e6565b9250506040610aba868287016109fb565b9150509250925092565b60008060408385031215610ad757600080fd5b6000610ae5858286016109e6565b9250506020610af6858286016109fb565b9150509250929050565b610b0981610c67565b82525050565b6000610b1a82610baf565b610b248185610bba565b9350610b34818560208601610c9d565b610b3d81610d60565b840191505092915050565b610b5181610c93565b82525050565b6000602082019050610b6c6000830184610b00565b92915050565b60006020820190508181036000830152610b8c8184610b0f565b905092915050565b6000602082019050610ba96000830184610b48565b92915050565b600081519050919050565b600082825260208201905092915050565b6000610bd682610c93565b9150610be183610c93565b9250827fffffffffffffffffffffffffffffffffffffffffffffffffffffffffffffffff03821115610c1657610c15610d02565b5b828201905092915050565b6000610c2c82610c93565b9150610c3783610c93565b925082821015610c4a57610c49610d02565b5b828203905092915050565b6000610c6082610c73565b9050919050565b60008115159050919050565b600073ffffffffffffffffffffffffffffffffffffffff82169050919050565b6000819050919050565b60005b83811015610cbb578082015181840152602081019050610ca0565b83811115610cca576000848401525b50505050565b60006002820490506001821680610ce857607f821691505b60208210811415610cfc57610cfb610d31565b5b50919050565b7f4e487b7100000000000000000000000000000000000000000000000000000000600052601160045260246000fd5b7f4e487b7100000000000000000000000000000000000000000000000000000000600052602260045260246000fd5b6000601f19601f8301169050919050565b610d7a81610c55565b8114610d8557600080fd5b50565b610d9181610c93565b8114610d9c57600080fd5b5056fea2646970667358221220b967816a095bd5b1d448059f7df9c2704df418de3a2cd188c915121eb607c7d964736f6c63430008000033",
  "immutableReferences": {},
  "source": "// SPDX-License-Identifier: MIT\npragma solidity ^0.8.0;\n\ninterface ERC20Interface {\n    function transfer(address to, uint256 tokens)\n        external\n        returns (bool success);\n\n    function transferFrom(\n        address from,\n        address to,\n        uint256 tokens\n    ) external returns (bool success);\n\n    function balanceOf(address tokenOwner)\n        external\n        view\n        returns (uint256 balance);\n\n    function approve(address spender, uint256 tokens)\n        external\n        returns (bool success);\n\n    function allowance(address tokenOwner, address spender)\n        external\n        view\n        returns (uint256 remaining);\n\n    function totalSupply() external view returns (uint256);\n\n    event Transfer(address indexed from, address indexed to, uint256 tokens);\n    event Approval(\n        address indexed tokenOwner,\n        address indexed spender,\n        uint256 tokens\n    );\n}\n\ncontract ERC20Token is ERC20Interface {\n    string public name;\n    string public symbol;\n    uint256 public decimals;\n    uint256 public override totalSupply;\n    mapping(address => uint256) public balances;\n    mapping(address => mapping(address => uint256)) public allowed;\n\n    constructor(\n        string memory _name,\n        string memory _symbol,\n        uint256 _decimals,\n        uint256 _totalSupply\n    ) {\n        name = _name;\n        symbol = _symbol;\n        decimals = _decimals;\n        totalSupply = _totalSupply;\n        balances[msg.sender] = _totalSupply;\n    }\n\n    function transfer(address to, uint256 value)\n        public\n        override\n        returns (bool)\n    {\n        require(balances[msg.sender] >= value);\n        balances[msg.sender] -= value;\n        balances[to] += value;\n        emit Transfer(msg.sender, to, value);\n        return true;\n    }\n\n    function transferFrom(\n        address from,\n        address to,\n        uint256 value\n    ) public override returns (bool) {\n        uint256 allowances = allowed[from][msg.sender];\n        require(balances[msg.sender] >= value && allowances >= value);\n        allowed[from][msg.sender] -= value;\n        balances[msg.sender] -= value;\n        balances[to] += value;\n        emit Transfer(msg.sender, to, value);\n        return true;\n    }\n\n    function approve(address spender, uint256 value)\n        public\n        override\n        returns (bool)\n    {\n        require(spender != msg.sender);\n        allowed[msg.sender][spender] = value;\n        emit Approval(msg.sender, spender, value);\n        return true;\n    }\n\n    function allowance(address owner, address spender)\n        public\n        view\n        override\n        returns (uint256)\n    {\n        return allowed[owner][spender];\n    }\n\n    function balanceOf(address owner) public view override returns (uint256) {\n        return balances[owner];\n    }\n}\n\ncontract ICO {\n    struct Sale {\n        address investor;\n        uint256 quantity;\n    }\n\n    Sale[] public sales;\n    mapping(address => bool) public investors;\n    address public token;\n    address public admin;\n    uint256 public end;\n    uint256 public price;\n    uint256 public availableTokens;\n    uint256 public minPurchase;\n    uint256 public maxPurchase;\n    bool public released;\n\n    constructor(\n        string memory _name,\n        string memory _symbol,\n        uint256 _decimals,\n        uint256 _totalSupply\n    ) {\n        token = address(\n            new ERC20Token(_name, _symbol, _decimals, _totalSupply)\n        );\n        admin = msg.sender;\n    }\n\n    modifier onlyInvestors() {\n        require(investors[msg.sender] == true, \" Only investors\");\n        _;\n    }\n\n    modifier onlyAdmin() {\n        require(msg.sender == admin, \"Only admin\");\n        _;\n    }\n\n    modifier icoActive() {\n        require(\n            end > 0 && block.timestamp < end && availableTokens > 0,\n            \"ICO must be active\"\n        );\n        _;\n    }\n\n    modifier icoNotActive() {\n        require(end == 0, \"ICO should not be active\");\n        _;\n    }\n\n    modifier icoEnded() {\n        require(\n            end > 0 && (block.timestamp > end || availableTokens == 0),\n            \"ICO must have ended\"\n        );\n        _;\n    }\n\n    modifier tokensNotReleased() {\n        require(released == false, \"Tokens must not have been released\");\n        _;\n    }\n\n    modifier tokensReleased() {\n        require(released == true, \"Tokens must have been released\");\n        _;\n    }\n\n    function start(\n        uint256 duration,\n        uint256 _price,\n        uint256 _availableTokens,\n        uint256 _minPurchase,\n        uint256 _maxPurchase\n    ) external onlyAdmin icoNotActive {\n        require(duration > 0, \"Duration should be > 0\");\n        uint256 totalSupply = ERC20Token(token).totalSupply();\n        require(\n            _availableTokens > 0 && _availableTokens <= totalSupply,\n            \"Available supply should be greater than 0 and less than total supply\"\n        );\n        require(_minPurchase > 0, \"Minimum purchase should be greater than 0\");\n        require(\n            _maxPurchase > 0 && _maxPurchase <= _availableTokens,\n            \"Maximum purchase should be greater than 0 and less than or equal to available tokens\"\n        );\n        end = duration + block.timestamp;\n        price = _price;\n        availableTokens = _availableTokens;\n        minPurchase = _minPurchase;\n        maxPurchase = _maxPurchase;\n    }\n\n    function whiteList(address investor) external onlyAdmin {\n        investors[investor] = true;\n    }\n\n    function buy() external payable onlyInvestors icoActive {\n        require(msg.value % price == 0, \"Have to send a multiple of price\");\n        require(\n            msg.value >= minPurchase && msg.value <= maxPurchase,\n            \"Have to send between minimum and maximum purchase\"\n        );\n        uint256 quantity = price * msg.value;\n        require(quantity <= availableTokens, \"Insufficient tokens for sale\");\n        sales.push(Sale(msg.sender, quantity));\n    }\n\n    function release() external onlyAdmin icoEnded tokensNotReleased {\n        ERC20Token tokenInstance = ERC20Token(token);\n        for (uint256 i = 0; i < sales.length; i++) {\n            Sale storage sale = sales[i];\n            tokenInstance.transfer(sale.investor, sale.quantity);\n        }\n    }\n\n    function withdraw(address payable to, uint256 amount)\n        external\n        onlyAdmin\n        icoEnded\n        tokensReleased\n    {\n        to.transfer(amount);\n    }\n}\n",
  "sourcePath": "/Users/jasonha/Desktop/demos/smart_contracts/ICO/smart_contract/contracts/ICO.sol",
  "compiler": {
    "name": "solc",
    "version": "0.8.0+commit.c7dfd78e.Emscripten.clang"
  },
  "schemaVersion": "3.4.5",
  "updatedAt": "2022-03-14T23:28:54.952Z",
  "networkType": "ethereum",
  "devdoc": {
    "kind": "dev",
    "methods": {},
    "version": 1
  },
  "userdoc": {
    "kind": "user",
    "methods": {},
    "version": 1
  }
}